:020000040800F2
:10000000F0090020D5010008131800086510000849
:100010000F180008B1050008C91E00080000000004
:10002000000000000000000000000000251B000888
:10003000D10C000800000000FD180008111C000889
:10004000EF010008EF010008EF010008EF010008D0
:10005000EF010008EF010008EF010008EF010008C0
:10006000EF010008EF010008EF010008EF010008B0
:10007000EF010008EF010008EF010008EF010008A0
:10008000B505000829060008EF010008EF01000887
:10009000EF010008EF010008EF010008EF01000880
:1000A000EF010008EF010008EF010008EF01000870
:1000B000EF010008EF010008EF010008EF01000860
:1000C000EF010008EF010008EF010008EF01000850
:1000D000EF010008EF010008EF010008EF01000840
:1000E000EF010008EF010008EF010008EF01000830
:1000F000EF010008EF010008EF010008EF01000820
:10010000EF010008EF010008EF010008EF0100080F
:10011000EF010008EF010008EF010008EF010008FF
:10012000EF010008EF010008EF010008EF010008EF
:1001300000F002F800F03FF80AA090E8000C8244BA
:100140008344AAF10107DA4501D100F034F8AFF297
:10015000090EBAE80F0013F0010F18BFFB1A43F0A5
:10016000010318478C2A0000AC2A0000103A24BF73
:1001700078C878C1FAD8520724BF30C830C144BF0C
:1001800004680C607047000000230024002500264E
:10019000103A28BF78C1FBD8520728BF30C148BFEA
:1001A0000B607047782900F06B80002070471FB506
:1001B0001FBD10B510BD00F0B7F91146FFF7F7FFEE
:1001C00001F09EFE00F0D5F903B4FFF7F2FF03BC87
:1001D00001F083FE0948804709480047FEE7FEE733
:1001E000FEE7FEE7FEE7FEE7FEE7FEE7FEE7FEE7E7
:1001F00004480549054A064B70470000151C0008D5
:1002000031010008F0030020F0090020F005002073
:10021000F0050020704700000FB4044910B503AA90
:10022000029800F053F910BC5DF814FBA000002008
:1002300070B5044685690068C10601D5302600E026
:100240002026C00707D070BDD4E901213046904771
:10025000206A401C20626D1EF6D570BD70B5044644
:1002600085690078C00707D170BDD4E9012120203D
:100270009047206A401C20626D1EF6D570BD0000BC
:1002800070B504460D4621461068AFF30080218802
:10029000090502D50F4A7A4402E00E4A7A440E322A
:1002A000002104F1240305E000F00F060009965D2B
:1002B0005E54491C0028F7D120780023000704D59C
:1002C000702D02D009B1022311322046BDE87040E2
:1002D00000F0A2B8B22700002DE9F05F894604467D
:1002E0004FF0000ADFF824B1FB44C0F820A02046FC
:1002F000E168884700287DD0252806D0D4E901216F
:100300009047206A401C2062F1E700255F462046A6
:10031000E16888472028064607DB312E05D2B81948
:1003200010F8200C08B10543F1E7A80701D525F026
:100330000405C4F81CA00027C4F818A02A2E09D070
:10034000304601F0C3FD38B304EB8708303EC8F8EF
:10035000186019E059F8041B204604EB87029161EC
:10036000E1688847012F064618D1E069002820DAA5
:1003700025F020051DE0D8F8180000EB800006EB02
:1003800040003038C8F818002046E1688847064623
:1003900001F09CFD0028EED1012F0AD02E2E08D1AD
:1003A0002046E16888477F1C0646022F45F020055D
:1003B000C4DBA069002803DA404245F00105A061D2
:1003C000E80701D025F01005A6B1A6F141001928D3
:1003D00002D8203645F400654A463146204625605D
:1003E0004D46FFF7DFFE60B1012807D0ED1D25F077
:1003F000070000E007E000F1080978E705F10409CB
:1004000075E730467AE7206ABDE8F09F882700004C
:1004100070477047704770472DE9F0470D46994681
:100420009246044600F124080168880604D5E06974
:1004300021F01001216000E00120A84201DD471BEE
:1004400000E00027A1697A1902EB0900081AA061EF
:100450002078C00602D42046FFF7EAFE002608E016
:10046000D4E901211AF806009047206A401C761C46
:1004700020624E45F4DB2078C0060AD52046FFF7FF
:10048000D7FE06E0D4E9012130209047206A401CC5
:100490002062381EA7F10107F4DC07E0D4E901214E
:1004A00018F805009047206A401C2062281EA5F11C
:1004B0000105F3DC2046FFF7D1FE2078000602D5C7
:1004C0000220BDE8F0870120FBE70000074B70B574
:1004D0000D467B4400F011F80446284600F020F851
:1004E00010B14FF0FF3070BD204670BD0F1A0000F4
:1004F00001694A1C02610878704700B58FB0CDE9E8
:1005000001310021059105497944CDE903101146D7
:100510006846FFF7E1FE0FB000BD0000E5FFFFFFFA
:10052000007B00F080007047754600F02BF8AE4667
:1005300005006946534620F00700854618B020B5EF
:10054000FFF756FEBDE820404FF000064FF00007D1
:100550004FF000084FF0000B21F00701AC46ACE86B
:10056000C009ACE8C009ACE8C009ACE8C0098D46D8
:10057000704710B50446AFF300802046BDE8104038
:10058000FFF722BE004870479003002010B50346D5
:1005900007E018780C78A04201D0002010BD5B1C49
:1005A000491C101EA2F10104A2B2F2D10120F5E70C
:1005B00000BFFEE710B54FF4001000F0A3F940B300
:1005C0000021144800F06EF84FF4801000F04AF853
:1005D0004FF420401049086007E00F490868411EA9
:1005E0000D4A116008B901F0C1FF0C490C4800F038
:1005F0000DFF0028F1D00121094800F0DDFE084878
:100600001430008806481830008800200549096821
:10061000087010BD6C000240BC00002004000010F7
:1006200000540040C400002010B54FF0007000F0EE
:1006300069F978B10121084800F0BEFE00210748A1
:1006400000F030F84FF0807000F00CF80020044902
:100650000968088010BD000000540040800002407E
:10066000C000002010B5044604F0704010B10948E5
:10067000204008B904B104E040F20E21064801F020
:100680002FFC04F0805010B10448046001E00448DD
:10069000446010BD0000F0EF602B0008040402402D
:1006A0000000024070B504460D46244884422AD01A
:1006B00022481430844226D020482830844222D058
:1006C0001E483C3084421ED01C48503084421AD010
:1006D0001A486430844216D018487830844212D0C8
:1006E000174884420FD01648143084420BD0144867
:1006F0002830844207D012483C30844203D010484E
:100700005030844200D104E040F229110D4801F03C
:10071000E7FB0DB1012D00D104E04FF495710948BC
:1007200001F0DEFB25B1206840F00100206004E00C
:1007300020684FF6FE710840206070BD080002403E
:1007400008040240602B000810B504466A48844241
:100750002AD069481430844226D067482830844221
:1007600022D065483C3084421ED0634850308442D9
:100770001AD061486430844216D05F487830844291
:1007800012D05E4884420FD05C48143084420BD0B3
:100790005A482830844207D058483C30844203D01D
:1007A00056485030844200D103E06F21544801F094
:1007B00097FB20684FF6FE71084020600020206003
:1007C0006060A060E0604C48844208D14A48083824
:1007D000406840F00F004849083948608AE04648C0
:1007E0001430844208D144480838406840F0F00092
:1007F0004149083948607DE03F482830844208D1AB
:100800003D480838406840F470603B49083948600A
:1008100070E039483C30844208D137480838406895
:1008200040F4704034490839486063E03248503041
:10083000844208D130480838406840F470202E497E
:100840000839486056E02C486430844208D12A4870
:100850000838406840F4700027490839486049E08A
:1008600025487830844208D123480838406840F051
:1008700070602149083948603CE02048844206D134
:10088000001F006840F00F00211F086032E01B4885
:100890001430844208D11948001F006840F0F0006D
:1008A0001649091F086025E014482830844208D101
:1008B0001248001F006840F470601049091F08606A
:1008C00018E00E483C30844208D10C48001F0068F4
:1008D00040F470400949091F08600BE00748503098
:1008E000844207D10548001F006840F47020034986
:1008F000091F086010BD0000080002400804024003
:10090000602B000870B5044600250026012C7DD020
:10091000022C7BD0042C79D0082C77D0102C75D0E9
:10092000202C73D0402C71D0802C7FD0B4F5807FE8
:100930007CD0B4F5007F79D0B4F5806F76D0B4F573
:10094000006F73D0B4F5805F70D0B4F5005F6DD0E8
:10095000B4F5804F6AD0B4F5004F67D0B4F5803F4E
:1009600064D0B4F5003F61D0B4F5802F5ED0B4F50B
:10097000002F5BD0B4F5801F58D0B4F5001F55D0C0
:10098000B4F5800F52D0B4F5000F4FD0B4F1807F92
:100990004CD0B4F1007F49D0B4F1806F46D0B4F1AF
:1009A000006F43D02C48844240D0401C84423DD04C
:1009B000801C84423AD0001D844237D026480F3034
:1009C000844233D024481F3084422FD022483F3005
:1009D00084422BD020487F30844227D01E48FF30ED
:1009E000844223D01D48844220D01D4884421DD01B
:1009F0001C4884421AD0B4F1102F17D04FEAF030BF
:100A0000844213D01848844210D000E00EE017480A
:100A100084420BD01648844208D01648844205D040
:100A20001548844202D01548844200D104E040F2C7
:100A3000B711134801F054FA04F0805010B1114876
:100A4000066801E01048066806EA040008B10125BE
:100A500000E00025284670BD0100001000020010D3
:100A6000000400100008001000400010008000107A
:100A70000000011000000210000004100000081027
:100A8000602B0008000402400000024070B50446DC
:100A90000D461646274884422AD026481430844200
:100AA00026D024482830844222D022483C30844238
:100AB0001ED02048503084421AD01E4864308442F0
:100AC00016D01C487830844212D01B4884420FD084
:100AD0001948143084420BD017482830844207D07C
:100AE00015483C30844203D013485030844200D132
:100AF00004E040F24911114801F0F2F925F00E002E
:100B000008B905B104E04FF4A5710C4801F0E8F90B
:100B10000EB1012E00D104E040F24B11074801F064
:100B2000DFF91EB120682843206002E02068A84356
:100B3000206070BD0800024008040240602B0008DD
:100B400070B505460C4600265E4885422AD05D48B1
:100B50001430854226D05B482830854222D059483F
:100B60003C3085421ED05748503085421AD05548F7
:100B70006430854216D053487830854212D05248AE
:100B800085420FD05048143085420BD04E48283053
:100B9000854207D04C483C30854203D04A4850300B
:100BA000854200D103E0CF21484801F099F9A068BF
:100BB000102801D0A06800B903E0D021434801F01B
:100BC0008FF9E06820B1E068B0F5803F00D203E023
:100BD000D1213E4801F084F92069402801D02069E4
:100BE00000B903E0D221394801F07AF96069802820
:100BF00001D0606900B903E0D321344801F070F9F5
:100C0000A06938B1A069B0F5807F03D0A069B0F5C4
:100C1000007F00D103E0D4212C4801F061F9E069A4
:100C200038B1E069B0F5806F03D0E069B0F5006FCE
:100C300000D103E0D521254801F052F9206A20288F
:100C400001D0206A00B903E0D621204801F048F91C
:100C5000606AB0F5405F09D0606AB0F5005F05D00A
:100C6000606AB0F5805F01D0606A00B903E0D72107
:100C7000164801F035F9A06AB0F5804F01D0A06A9E
:100C800000B903E0D821114801F02AF92E6847F68F
:100C9000F0708643216AA0680843216908436169AE
:100CA0000843A1690843E1690843616A0843A16AEE
:100CB000084306432E60E06868602068A8606068AA
:100CC000E86070BD0800024008040240602B000884
:100CD0007047000010B5044621680EA0FFF79CFA8B
:100CE000616811A0FFF798FAA16814A0FFF794FAC1
:100CF000E16817A0FFF790FA21691AA0FFF78CFAB4
:100D000061691DA0FFF788FAA16920A0FFF784FAA6
:100D100010BD0000704770696F2D3E43524C203D5E
:100D200020307825780A0000704770696F2D3E43A7
:100D30005248203D20307825780A000070477069BD
:100D40006F2D3E494452203D20307825780A00001E
:100D5000704770696F2D3E4F4452203D20307825FA
:100D6000780A0000704770696F2D3E42535252203E
:100D70003D20307825780A00704770696F2D3E421B
:100D80005252203D20307825780A00007047706963
:100D90006F2D3E4C434B52203D20307825780A0081
:100DA00010B51B4801881BA0FFF736FA1848001D34
:100DB00001881DA0FFF730FA1548083001881FA0F0
:100DC000FFF72AFA12480C30018821A0FFF724FA15
:100DD0000F481030018823A0FFF71EFA0C4814308A
:100DE000018825A0FFF718FA09481830018827A0C4
:100DF000FFF712FA06481C30018829A0FFF70CFA09
:100E00000348203001882BA0FFF706FA10BD000030
:100E100000540040493243312D3E435231203D20A1
:100E2000307825780A000000493243312D3E435284
:100E300032203D20307825780A00000049324331C5
:100E40002D3E4F415231203D20307825780A000058
:100E5000493243312D3E4F415232203D20307825DA
:100E6000780A0000493243312D3E4452203D203063
:100E70007825780A00000000493243312D3E535254
:100E800031203D20307825780A0000004932433176
:100E90002D3E535232203D20307825780A00000044
:100EA000493243312D3E434352203D20307825784E
:100EB0000A000000493243312D3E54524953452027
:100EC0003D20307825780A002DE9F05F05460C4674
:100ED0004FF00009CA4600260027B046B3465948DD
:100EE000854211D0584885420ED0584885420BD0D3
:100EF0005748854208D05748854205D05648854214
:100F000002D05648854200D103E0B221544800F097
:100F1000E7FFE078A0B1E078042811D0E078282835
:100F20000ED0E07848280BD0E078142808D0E0787C
:100F3000102805D0E0781C2802D0E078182800D1CD
:100F400003E0B321464800F0CBFF002010B9208811
:100F500000B103E0B421424800F0C2FFE07800F0A5
:100F60000F09E07800F0100080B1A078012805D0CA
:100F7000A078022802D0A078032800D103E0BB218A
:100F8000374800F0ADFFA07840EA0909207838B36F
:100F9000D5F8008000261FE0012000FA06F720881F
:100FA00000EA070ABA4516D1B7000F2000FA07FB7E
:100FB00028EA0B0809FA07F040EA0808E078282830
:100FC00003D10120B040686105E0E078482802D1F3
:100FD0000120B0402861761C082EDDD3C5F80080C2
:100FE0002088FF282BDDD5F80480002623E006F1B9
:100FF0000800012101FA00F7208800EA070ABA4533
:1010000018D1B7000F2000FA07FB28EA0B0809FAED
:1010100007F040EA0808E078282803D106F1080024
:1010200081406961E078482804D106F10800012177
:1010300081402961761C082ED9D3C5F80480BDE80B
:10104000F09F000000080140000C0140001001402A
:101050000014014000180140001C01400020014024
:10106000182B000800BFFEE770B504460D46104877
:10107000844202D00F48844200D104E040F2BD1106
:101080000D4800F02DFF0DB1012D00D104E04FF40B
:10109000DF71094800F024FF25B1208840F480600A
:1010A000208004E020884FF6FF310840208070BD8A
:1010B0000054004000580040D02A00082DE9F047B5
:1010C00005460C460027B9460026B04633488542FF
:1010D00002D03348854200D104E040F20D4131484E
:1010E00000F0FEFE304884423DD0B4F1021F3AD0F9
:1010F0002E48844237D0B4F5020F34D0B4F5901F97
:1011000031D02B4884422ED02A4884422BD02A4802
:10111000844228D02448801C844224D02348001DC7
:10112000844220D0254884421DD0102C1BD0244856
:10113000844218D02348844215D02148401C844260
:1011400011D01F483F3084420DD01E48801C84427D
:1011500009D0001F844206D01948C01D844202D025
:10116000B4F5806F00D104E040F20E410D4800F06C
:10117000B7FEB5F814902E8B360449EA060020F02D
:101180007F4707EA0400A04202D14FF0010801E0C6
:101190004FF000084046BDE8F087000000540040D2
:1011A00000580040D02A0008820006008000860017
:1011B000400002004000820040001200840016003F
:1011C000010003008200070070B504460D460026AA
:1011D0000D48844202D00D48844200D104E04FF40F
:1011E00098610B4800F07CFE42F2FF00284008B9ED
:1011F00005B104E040F2C141054800F071FE25F060
:101200007F46F043A08270BD00540040005800406B
:10121000D02A000870B504460D461048844202D01A
:101220000F48844200D104E040F245110D4800F01F
:1012300057FE0DB1012D00D104E04FF4A371094810
:1012400000F04EFE25B1208840F00100208004E02F
:1012500020884FF6FE710840208070BD0054004089
:1012600000580040D02A000870B504460D461048CA
:10127000844202D00F48844200D104E040F25D1164
:101280000D4800F02DFE0DB1012D00D104E04FF40A
:10129000AF71094800F024FE25B1A08840F4006039
:1012A000A08004E0A0884FF2FF710840A08070BDCC
:1012B0000054004000580040D02A000870B5044691
:1012C0000D461048844202D00F48844200D104E009
:1012D00040F275110D4800F003FE0DB1012D00D153
:1012E00004E04FF4BB71094800F0FAFD25B1A08875
:1012F00040F48050A08004E0A0884EF6FF710840C2
:10130000A08070BD0054004000580040D02A000862
:1013100010B504461048844202D01048844200D1DF
:1013200003E0A5210E4800F0DBFD0B48844209D103
:101330000121480500F038FB00214FF4001000F0B7
:1013400033FB08E00121880500F02EFB00214FF45B
:10135000800000F029FB10BD005400400058004000
:10136000D02A000870B504460D461048844202D0C9
:101370000F48844200D104E040F28D110D4800F086
:10138000AFFD0DB1012D00D104E04FF4C771094844
:1013900000F0A6FD25B1208840F48070208004E094
:1013A00020884FF6FF610840208070BD0054004047
:1013B00000580040D02A000870B504460D46104879
:1013C000844202D00F48844200D104E040F2A511CB
:1013D0000D4800F085FD0DB1012D00D104E04FF462
:1013E000D371094800F07CFD25B1208840F40070DD
:1013F000208004E020884FF6FF510840208070BD17
:101400000054004000580040D02A00087CB5054632
:101410000C4600260020019000903648854202D0FC
:101420003548854200D104E040F27341334800F072
:1014300057FDB4F5000F3FD0B4F5800F3CD0B4F5A4
:10144000001F39D0B4F5801F36D0B4F5802F33D0CB
:10145000B4F5003F30D0B4F5803F2DD02848844209
:101460002AD02848844227D0B4F1102F24D026480F
:10147000844221D0254884421ED0254884421BD076
:101480002448844218D023488038844214D021480C
:10149000C038844210D01F48F03884420CD01D4818
:1014A000F838844208D0001F844205D0801E844250
:1014B00002D0401E844200D104E040F274410F4843
:1014C00000F00EFD0095200F019024F07F4401985C
:1014D00018B100981430009003E0240C00981830E4
:1014E000009000980068204008B1012600E0002626
:1014F00030467CBD0054004000580040D02A00080F
:1015000000800010004000100008001000040010CF
:1015100000020010000100102DE9F04385B00546DF
:101520000C460026B1460427DFF870815C488542EE
:1015300002D05C48854200D103E0C6215A4800F041
:10154000CFFC206820B159492068884200D803E0C8
:10155000C721554800F0C4FCA08828B1A088022803
:1015600002D0A0880A2800D103E0C8214E4800F02C
:10157000B7FCE088B0F5804F04D0E0884BF6FF71EF
:10158000884200D103E0C921474800F0A9FC208926
:10159000B0F5806F00DA03E0CA21434800F0A0FCF8
:1015A0006089B0F5806F01D0608900B903E0CB217C
:1015B0003D4800F095FCA089B0F5804F03D0A0898C
:1015C000B0F5404F00D103E0CC21374800F088FC53
:1015D000AE884FF6C0700640684600F039FADDF874
:1015E00008803348B8FBF0F01FFA80F946EA090694
:1015F000AE8028884FF6FE710840288000262D49CD
:10160000206888420CD820684000B8FBF0F087B210
:10161000042F00DA04273E4309F10100288427E063
:10162000E0884BF6FF71884206D1206800EB40004D
:10163000B8FBF0F087B209E0206800EBC00101EBD5
:101640000010B8FBF0F087B247F48047C7F30B00F7
:1016500008B947F0010747F4004006434FF496707D
:1016600009FB00F04FF47A7190FBF1F0401C2884E4
:10167000AE83288840F0010028802E884FF6F53090
:101680000640A0886189084306432E80A0892189ED
:101690000843288105B0BDE8F083000000127A00FD
:1016A0000054004000580040D02A0008801A06006C
:1016B00040420F00A086010010B50446074884424E
:1016C00002D00748844200D104E040F24A21054894
:1016D00000F006FC208AC0B210BD0000005400409B
:1016E00000580040D02A000870B504460E46154642
:1016F0000E48844202D00E48844200D104E04FF4E8
:1017000017710C4800F0ECFB0DB1012D00D104E085
:1017100040F25D21074800F0E3FB15B146F00106F9
:1017200002E04FF6FE700640268270BD0054004075
:1017300000580040D02A000870B504460D460748FE
:10174000844202D00648844200D104E040F23D21A8
:10175000044800F0C5FB258270BD00000054004025
:1017600000580040D02A000800B585B001210420AF
:1017700000F044F90121880300F040F918208DF8A9
:1017800013004FF40070ADF8100001208DF8120026
:1017900004A91548FFF798FB04208DF813000002F8
:1017A000ADF8100001208DF8120004A90E48FFF7D3
:1017B0008BFB4FF4E13000900020ADF80C000C20C2
:1017C000ADF80A000020ADF80800ADF80600ADF84D
:1017D00004006946054800F087FA0121034800F03B
:1017E00049FA05B000BD0000000801400038014082
:1017F00008B5009006E0009000BF00994A1E0092D4
:101800000029FAD1011EA0F10100F4D108BD00BFEA
:10181000FEE770472DE9F0410446002500270F261A
:10182000E07810B1E078012800D103E0752121A013
:1018300000F056FB6078102800DA03E076211DA046
:1018400000F04EFBA078102800DA03E0772119A001
:1018500000F046FBE07800B32548006800F4E06043
:10186000C0F5E060050AC5F10407EE40607800FAB3
:1018700007F5A078304005432D011E482278855495
:10188000207800F01F01012088402178491189004B
:1018900001F1E021C1F8000109E0207800F01F010A
:1018A0000120884014492278521141F82200BDE8F5
:1018B000F08100002E2E5C2E2E5C2E2E5C2E2E5CD7
:1018C0004C69627261726965735C53544D33324680
:1018D0003130785F5374645065726970685F447228
:1018E000697665725C7372635C6D6973632E630005
:1018F0000CED00E000E400E080E100E07047000053
:1019000070B504460D4640F2575024EA000008B96D
:1019100004B104E040F22B410C4800F0E1FA0DB1B3
:10192000012D00D104E040F22C41084800F0D8FA23
:101930002DB10748406920430549486104E0044847
:101940004069A0430249486170BD0000882A000830
:101950000010024070B504460D461048204008B9FA
:1019600004B104E040F269410D4800F0B9FA0DB14C
:10197000012D00D104E040F26A41094800F0B0FABC
:101980002DB10848C06920430649C86104E00548F4
:10199000C069A0430349C86170BD000000360181E1
:1019A000882A00080010024070B504460D46104811
:1019B000204008B904B104E040F2C3410D4800F0F2
:1019C0008FFA0DB1012D00D104E040F2C441094865
:1019D00000F086FA2DB108480069204306490861E5
:1019E00004E005480069A0430349086170BD000098
:1019F00000360181882A00080010024070B50446B4
:101A00000D461048204008B904B104E040F24A41B4
:101A10000D4800F065FA0DB1012D00D104E040F24F
:101A20004B41094800F05CFA2DB108488069204319
:101A30000649886104E005488069A043034988613C
:101A400070BD00000200C0FF882A0008001002409C
:101A500030B500210022002400232D4D6D6805F0D3
:101A60000C0121B1042905D0082923D105E0294D15
:101A7000056022E0274D05601FE0254D6D6805F4E7
:101A80007012234D6D6805F48034022505EB9242F7
:101A90001CB9214D554305600BE01D4D6D6805F4E3
:101AA00000351DB11C4D5543056002E0194D5543ED
:101AB000056002E0174D056000BF00BF144D6D6862
:101AC00005F0F0010909154D6B5C0568DD404560C6
:101AD0000F4D6D6805F4E061090A104D6B5C4568B7
:101AE000DD4085600A4D6D6805F46051C90A0B4DF3
:101AF0006B5C4568DD40C560054D6D6805F440418F
:101B0000890B074D6B5CC568B5FBF3F5056130BD0E
:101B10000010024000127A0000093D00A4000020DD
:101B2000B4000020704710B500F002F810BD0000AE
:101B30000CB50020019000903348006840F48030DC
:101B40003149086000BF3048006800F40030009060
:101B50000198401C0190009818B90198B0F5A06F49
:101B6000F1D12948006800F4003010B10120009044
:101B700001E0002000900098012843D1234800682C
:101B800040F01000214908600846006820F003007A
:101B900008600846006840F0020008601A48406883
:101BA000194948600846406848600846406840F463
:101BB000806048600846406820F47C104860084611
:101BC000406840F4E81048600846006840F08070C3
:101BD000086000BF0C48006800F000700028F9D0D1
:101BE0000948406820F003000749486008464068FB
:101BF00040F00200486000BF0348406800F00C005D
:101C00000828F9D10CBD000000100240002002405D
:101C10007047000010B51348006840F001001149FA
:101C2000086008464068104908400E494860084668
:101C300000680E4908400B4908600846006820F417
:101C4000802008600846406820F4FE0048604FF499
:101C50001F008860FFF767FF4FF0006004490860CD
:101C600010BD0000001002400000FFF8FFFFF6FE6C
:101C700008ED00E070B504460D46154884420BD0CF
:101C80001448844208D01448844205D01348844242
:101C900002D01348844200D104E04FF4B1711148DE
:101CA00000F01EF90DB1012D00D104E040F26311E6
:101CB0000C4800F015F925B1A08940F40050A0812E
:101CC00004E0A0894DF6FF710840A08170BD0000BE
:101CD000003801400044004000480040004C0040F3
:101CE00000500040A82B00082DE9F04786B00546BB
:101CF0000C460026B24600BFB14600276B4885421D
:101D00000BD06B48854208D06A48854205D06A48A6
:101D1000854202D06948854200D103E0B821684875
:101D200000F0DEF8206820B166492068884200D2C1
:101D300003E0B921624800F0D3F8A08818B1A08868
:101D4000B0F5805F00D103E0BA215D4800F0C8F82B
:101D5000E08858B1E088B0F5805F07D0E088B0F542
:101D6000005F03D0E088B0F5405F00D103E0BB2105
:101D7000534800F0B5F8208938B12089B0F5806F5C
:101D800003D02089B0F5C06F00D103E0BC214C48DE
:101D900000F0A6F860894FF6F371084010B9608929
:101DA00000B103E0BD21464800F09AF8A08958B17F
:101DB000A089B0F5807F07D0A089B0F5007F03D05F
:101DC000A089B0F5407F00D103E0BE213C4800F07F
:101DD00087F8A08968B13548854205D034488542E6
:101DE00002D03448854200D103E0C221344800F0DB
:101DF00077F82F462E8A4CF6FF700640E08806439F
:101E00002E82AE894EF6F3100640A0882189084341
:101E1000618908430643AE81AE8A4FF6FF40064013
:101E2000A0890643AE8201A8FFF712FE1F48874231
:101E300002D1DDF810A001E0DDF80CA0A88900F4C3
:101E4000004040B10AEBCA0000EB0A1021684900CB
:101E5000B0FBF1F807E00AEBCA0000EB0A102168BA
:101E60008900B0FBF1F86420B8FBF0F006013009FE
:101E7000642101FB1089A88900F4004040B13220A0
:101E800000EBC900B0FBF1F000F00700064308E0EA
:101E9000322000EB09106421B0FBF1F000F00F00DC
:101EA00006432E8106B0BDE8F087000000380140EF
:101EB0000044004000480040004C004000500040FA
:101EC000A82B000821AA440000BFFEE730380A28EA
:101ED00001D20120704700207047014600BF7047C3
:101EE00000BFFEE700BF054A128802F04002002A48
:101EF000F9D0C2B2014B1B1D1A8070470038014057
:101F00000A240025FFF730FC06E040F6B830FFF762
:101F10006FFC3CA0FEF780F9201EA4F10104F4D16F
:101F200000F0E2F83DA0FEF777F9FEF739FF3F48F1
:101F3000FEF7D0FE102240213D4800F0A1FB102208
:101F400000213B4800F09CFB10228021384800F023
:101F500097FB4FF48070374908800846018836A007
:101F6000FEF75AF9334A0021384800F0CBF905460C
:101F7000294637A0FEF750F90BE039A0FEF74CF9DF
:101F80002C4801882CA0FEF747F940F6B830FFF73F
:101F90002FFC284800880028EFDC39A0FEF73CF928
:101FA000002411E004F0070040B91BA0FEF734F94B
:101FB00004F10802214636A0FEF72EF92348015D00
:101FC00038A0FEF729F9641CFF2CEBD912A0FEF70C
:101FD00023F90F2235491648FEF7D8FA344908701C
:101FE00008460078012802D132A0FEF715F900F06A
:101FF00073F806E034A0FEF70FF941F28830FFF7DE
:10200000F7FBF7E74932632054657374205374611A
:102010007274696E672E2E2E0A00000044756D7072
:102020002049326320526567733A0A00000C014070
:10203000000000209A0000204E756D4461746152CA
:10204000656164203D20307825780A006101002018
:1020500072656164526574203D20307825780A00ED
:1020600057616974696E6720666F7220726561647A
:10207000696E6720636F6D706C6574650A0000009F
:1020800044756D702052785F4275666665720A000D
:102090003078253032782E2E2E3078253032783A2E
:1020A000202000003078253032782000CC0000203D
:1020B00097000020493263205465737432205061C8
:1020C000737365640A0000004D61696E205768698A
:1020D0006C652E2E2E0A000010B500F051F810BDD0
:1020E00072B6704762B670471FB500F097F80020CF
:1020F000ADF804004BF6FF70ADF80600A020ADF877
:1021000008004FF48060ADF80A000001ADF80C0043
:102110000848009001210848FFF77CF86946064806
:10212000FFF7FAF901210448FFF79EF8A0200349C0
:1021300008801FBD801A060000540040B80000202F
:1021400070B504460D46164656B90B48446010203B
:10215000094988600846C5600848FEF7F1FC0AE0B6
:10216000054844600020044988600846C56003486B
:102170001430FEF7E5FC70BD640300206C000240E3
:102180001CB500212248FFF745F82148FFF7C0F8A9
:1021900000214FF40010FFF7DDFB4020ADF80400F4
:1021A00004208DF8070001A91A48FEF78DFE802053
:1021B000ADF8040001A91748FEF786FE10208DF83F
:1021C000000000208DF801008DF802008DF803005A
:1021D0006846FFF71FFB11208DF8000000208DF8E6
:1021E00001008DF802006846FFF714FB00210A4841
:1021F000FEF758FA002108481430FEF753FA064853
:10220000FEF7A2FA04481430FEF79EFA1CBD000047
:1022100000540040000C01406C0002401CB501213C
:102220000820FFF7EBFB01214805FFF793FB402057
:10223000ADF8040003208DF806001C208DF807007F
:1022400001A92C48FEF740FE8020ADF8040001A94A
:102250002848FEF739FE10208DF8000000208DF888
:1022600001008DF8020001208DF803006846FFF799
:10227000D1FA11208DF8000000208DF801008DF8B2
:1022800002006846FFF7C6FA01210846FFF738FB4F
:102290001948FEF759FA19481949086000204860A2
:1022A000102088604FF6FF70C86000200861802011
:1022B000486100208861C86108624FF4405048625C
:1022C000002088620C48FEF73BFC0B481430FEF7F8
:1022D0003BFA0B4908481430FEF732FC0122022178
:1022E0000548FEF7D3FB0122022103481430FEF714
:1022F000CDFB1CBD000C01406C000240105400409E
:102300006403002070B505460E46144685480460F7
:102310004FF420408449086008E083490868411E62
:10232000814A116010B900F021F970BD4FF40031FD
:102330007E48FFF76BF80028EFD101217B48FFF7BB
:1023400011F84FF480507849086008E07649086831
:10235000411E754A116010B900F008F9E5E77449AB
:102360007248FEF7ABFE0028F0D072480088C1B278
:1023700000226E48FFF7B8F94FF480506A490860B0
:1023800008E069490868411E674A116010B900F009
:10239000EDF8CAE768496548FEF790FE0028F0D0DE
:1023A00066A0FDF739FFFEF7FBFCF1B25F48FFF7CF
:1023B000C3F94FF480505C49086008E05A49086846
:1023C000411E594A116010B900F0D0F8ADE76049DC
:1023D0005648FFF71BF80028F0D001215348FEF7BC
:1023E000C1FF4FF480505049086008E04E4908682A
:1023F000411E4D4A116010B900F0B8F895E74C49FC
:102400004A48FEF75BFE0028F0D04A480088C1B277
:1024100001224648FFF768F92088022858DA4FF46D
:1024200080504149086008E03F490868411E3E4A23
:10243000116010B900F09AF877E74549891E3B48CA
:10244000FEF7E4FF0028EFD000213848FEF70CFE2D
:10245000FFF746FE35481830008801213348FEF763
:10246000ABFFFFF73FFE4FF480502F49086008E0B4
:102470002D490868411E2C4A116010B900F076F809
:1024800053E733493C312948FEF7C0FF0028EFD01D
:102490002648FFF711F928702088401E20804FF44D
:1024A00080502149086008E01F490868411E1E4A03
:1024B000116010B900F05AF837E71C48008800F4A2
:1024C00000700028F0D101211848FEF7CDFD26E06C
:1024D0004FF480501449086008E013490868411E11
:1024E000114A116010B900F041F81EE71049491C6B
:1024F0000E48FEF7E3FD0028EFD016A0FDF78CFE96
:10250000FEF74EFC218801222846FFF719FE012123
:102510000648FEF7D3FE01211348FEF7C3F800205A
:1025200003E70000C0000020BC0000200054004071
:1025300001000300B8000020820007007345455FDA
:10254000526561644275666665722829313A0A00EF
:10255000040000107345455F52656164427566660C
:1025600065722829323A0A008000024003A0FDF774
:1025700053FEFEF715FC00BFFEE7000054696D65D1
:102580006F75742068616E67696E672E2E2E0A0063
:102590001CB50020019000904FF4204033490860A2
:1025A00008E032490868411E304A116010B9FFF74F
:1025B000DDFF1CBD4FF400312D48FEF727FF00283A
:1025C000EFD151E001212A48FEF7CCFE4FF48050B4
:1025D0002649086008E025490868411E234A116021
:1025E00010B9FFF7C3FFE4E722492148FEF766FD73
:1025F0000028F0D020480088C1B200221C48FFF714
:1026000073F84FF420401949086000BF184814308F
:102610000088019015490868411E144A116010B9DC
:10262000FFF7A4FFC5E7BDF8040040F202410840EF
:102630000028EBD0BDF8040000F0020040B10C48C7
:102640001830008801210A48FEF7B6FE0020B0E7E6
:102650000A490748FEF7B8FD0098411C00919628EA
:1026600002D1FFF783FFA4E7ACE70000BC00002025
:102670000054004001000300B800002000040010D6
:102680002DE9F04780460E4614464FF0000900271A
:102690000025AA463046F11706EB11710911A6EB89
:1026A00001111FFA81FACAF11000C5B22046E117E4
:1026B00004EB1171C1F30719E11704EB1171091152
:1026C000A4EB0111CFB2BAF1000F66D1B9F1000F3E
:1026D0001CD19A48077002463146404600F032F954
:1026E0004FF420409649086009E095490868411E6A
:1026F000934A116018B9FFF739FFBDE8F0878F489A
:1027000000780028F1DCFFF743FF14E120E01020FF
:102710008A4908700A463146404600F013F94FF4E2
:1027200020408749086008E085490868411E844ABE
:10273000116010B9FFF71AFFDFE780480078002822
:10274000F2DCFFF725FF06F1100086B208F1100851
:10275000B9F10000A9F1010101F0FF09D7D1002F63
:10276000D3D07648077002463146404600F0EAF87A
:102770004FF420407249086008E071490868411E22
:102780006F4A116010B9FFF7F1FEB6E76B480078A9
:102790000028F2DCFFF7FCFECDE0B9F1000F57D1C5
:1027A000AC4239DD6548057002463146404600F0CE
:1027B000C9F84FF420406249086008E060490868A1
:1027C000411E5F4A116010B9FFF7D0FE95E75B48E4
:1027D00000780028F2DCFFF7DBFE601B5749087029
:1027E000721991B208EB0500544A00F0ABF84FF4AF
:1027F00020405349086008E051490868411E504A8A
:10280000116010B9FFF7B2FE77E74C480078002856
:10281000F2DCFFF7BDFE8EE0484807700246314605
:10282000404600F08FF84FF420404549086008E02A
:1028300043490868411E424A116010B9FFF796FEED
:102840005BE73E4800780028F2DCFFF7A1FE72E06B
:10285000601B84B22046E11704EB1171C1F3071924
:10286000E11704EB11710911A4EB0111CFB2EDB125
:102870003248057002463146404600F063F84FF496
:1028800020402F49086008E02D490868411E2C4A65
:10289000116010B9FFF76AFE2FE72848007800287A
:1028A000F2DCFFF775FE701986B2A84420E0102014
:1028B000224908700A463146404600F043F84FF47A
:1028C00020401F49086008E01D490868411E1C4A55
:1028D000116010B9FFF74AFE0FE71848007800288A
:1028E000F2DCFFF755FE06F1100086B208F1100881
:1028F000B9F10000A9F1010101F0FF09D7D1D7B169
:102900000E48077002463146404600F01BF84FF46F
:1029100020400B49086008E009490868411E084A40
:10292000116010B9FFF722FEE7E60448007800289E
:10293000F2DCFFF72DFE00BFDFE60000C80000203C
:10294000BC00002070B506460D46144638480460A9
:102950004FF420403749086008E036490868411EB6
:10296000344A116010B9FFF701FE70BD4FF4003119
:102970003148FEF74BFD0028EFD101212E48FEF72C
:10298000F1FC4FF480502B49086008E029490868A1
:10299000411E284A116010B9FFF7E8FDE5E7274915
:1029A0002548FEF78BFB0028F0D04FF480502149DA
:1029B000086023480088C1B200221F48FEF794FE39
:1029C0004FF480501B49086008E01A490868411E0E
:1029D000184A116010B9FFF7C9FDC6E71949164832
:1029E000FEF76CFB0028F0D0E9B21348FEF7A4FE16
:1029F0004FF480500F49086008E00E490868411EF6
:102A00000C4A116010B9FFF7B1FDAEE70D49891C02
:102A10000948FEF753FB0028EFD02178002230460A
:102A2000FFF78EFB01210848FDF73CFE00209CE7E4
:102A3000C4000020BC00002000540040010003003E
:102A4000B8000020820007006C00024030313233B1
:102A500034353637383941424344454640305800D2
:102A60003031323334353637383961626364656604
:102A70004030780004000008000000000000000260
:102A800000010000100000002E2E5C2E2E5C2E2E69
:102A90005C2E2E5C4C69627261726965735C535482
:102AA0004D3332463130785F5374645065726970CB
:102AB000685F4472697665725C7372635C73746D8F
:102AC0003332663130785F7263632E63000000003A
:102AD0002E2E5C2E2E5C2E2E5C2E2E5C4C6962728D
:102AE00061726965735C53544D3332463130785F9F
:102AF0005374645065726970685F44726976657278
:102B00005C7372635C73746D3332663130785F6905
:102B100032632E63000000002E2E5C2E2E5C2E2EC3
:102B20005C2E2E5C4C69627261726965735C5354F1
:102B30004D3332463130785F53746450657269703A
:102B4000685F4472697665725C7372635C73746DFE
:102B50003332663130785F6770696F2E6300000032
:102B60002E2E5C2E2E5C2E2E5C2E2E5C4C696272FC
:102B700061726965735C53544D3332463130785F0E
:102B80005374645065726970685F447269766572E7
:102B90005C7372635C73746D3332663130785F647A
:102BA0006D612E63000000002E2E5C2E2E5C2E2EFA
:102BB0005C2E2E5C4C69627261726965735C535461
:102BC0004D3332463130785F5374645065726970AA
:102BD000685F4472697665725C7372635C73746D6E
:102BE0003332663130785F75736172742E63000022
:102BF000102C000800000020CC0000006C01000830
:102C0000DC2C0008CC00002024090000880100080A
:102C1000000102030405060708090A0B0C0D0E0F3C
:102C20002F2A2053544D33324631307878204932A0
:102C300043204669726D77617265204C69627261EA
:102C4000727920454550524F4D2064726976657205
:102C5000206578616D706C653A202020202020204E
:102C60002020202020202020202020202020202064
:102C700020206275666665722032207472616E7300
:102C800066657220696E746F206164647265737327
:102C9000207345455F57524954455F41444452456E
:102CA000535332202A2F00000000000000000000D3
:102CB0000000000000000000010203040102030400
:102CC00006070809020406080000000000A0000032
:0C2CD000000000000000000000000000F8
:0400000508000131BD
:00000001FF
